:020000041000EA
:10000000F87F0230C1550010BF550010BD550010DB
:10001000BF550010BF550010BF550010BF55001050
:100020000000000000000000806B0000BF550010C1
:10003000BF55001000000000BF550010BF55001054
:10004000DD570010BF550010BF550010BF55001000
:10005000BF550010BF550010BF550010BF55001010
:1000600000000000BF550010BF5500100000000048
:10007000BF550010BF550010000000000000000038
:10008000255B00102F5B0010395B001000000000A2
:10009000BF550010BF550010BF550010BF550010D0
:1000A00000000000BF550010BF550010A5244D52A0
:1000B000000A1900BF5500100000000000000000F9
:1000C000BF550010BF550010BF550010BF550010A0
:1000D000BF5500100000000000000000BF550010D8
:1000E000BF550010BF550010BF550010BF55001080
:1000F000AD550010BF550010BF550010BF55001082
:100100000348044B834202D0034B03B118477047A6
:10011000B4000030B400003000000000064B074976
:10012000C91A891048BF0131491003D0044B0BB1E3
:1001300001481847704700BFB4000030B4000030D9
:100140000000000010B5064C237843B9FFF7D8FF34
:10015000044B13B10448AFF300800123237010BD9A
:10016000B400003000000000C46A001008B5054B60
:100170001BB105490548AFF30080BDE80840FFF713
:10018000CDBF00BF00000000B8000030C46A0010FE
:10019000A3F5803A704700BF174B002B08BF134BE5
:1001A0009D46FFF7F5FF00218B460F461348144A82
:1001B000121A05F0D9FD0E4B002B00D098470D4BBD
:1001C000002B00D098470020002104000D000D48AE
:1001D000002802D00C48AFF3008005F0C5FC2000D9
:1001E000290000F0CFFB05F0ADFC00BF00000800C7
:1001F0000000000000000000F87F0230B400003072
:10020000901800300000000000000000BFF34F8F86
:100210000549CA6802F4E062044B1343CB60BFF3A4
:100220004F8F00BFFDE700BF00ED00E00400FA05BE
:1002300010F0030F01D1002070470120704700002B
:10024000B2F5807F1FD8F0B5C3B007460E461546FD
:1002500000240AE0A01902F0F1FD02AB18550B4B87
:100260009B6813F4807FFAD10134A542F2DC01953A
:10027000074B0093074B3A4602A9074800F03CFDA4
:10028000002043B0F0BD4FF0FF30704700900050A9
:10029000E4010030D4010030E80100304268354B01
:1002A0009A4201D0002070472DE9F04104460669CA
:1002B000437E13F0010F0BD0D0F82A5055B1236BB9
:1002C0002D4A1360AB420AD802232376002004E0B3
:1002D000B56AF3E7012323760020BDE8F081E9B297
:1002E000C1F1D001731953FA81F121F0FF012348C4
:1002F00002F07CFD224B9B6813F4807FFAD11F4BE8
:100300001A68204B9A4203D0032323760020E4E7A7
:100310001A4B5B68AB4203D0042323760020DCE752
:10032000194F3A462946304600F0E0FFDFF860807A
:10033000124D464605F1080CBCE80F000FC69CE8BC
:100340000F0086E80F0008F1200628350FCD0FC6F4
:1003500095E80F0086E80F0000F058FE0B4A39467A
:10036000404600F0EFFD18B1052323760020B4E7E6
:100370000120B2E743655AA5EC020030A00300302B
:1003800000900050534EBF5800030030200300304F
:100390006003003010B5002405E00021204605F080
:1003A00039FA0134E4B21F2CF7D910BD10B50C4C4A
:1003B000204600F07BFC80220A49204600F040FCE9
:1003C000204600F05DFC0849204600F07FFC00203C
:1003D000064B1860064B186058609860D86010BDD6
:1003E000E8010030F0020030A0040030E4010030E9
:1003F000D40100302DE9F04FADF54F7D0890059107
:1004000006920993DDF860B3084602F002FA5E46F0
:1004100000252F46A946A8462C464FE0089B5B7E48
:1004200013F0040F0AD14FF480784246099B09EB80
:1004300003015F4805F0BCFB002441E04FF48072EB
:10044000099B09EB03015A48FFF7FAFE4FF4807845
:10045000002435E000220DF12F03029301920CAB32
:100460000093534B23440DAA4EA9059802F080FB3C
:100470000490002840F096800C9B1C440D9AB61AFC
:1004800099441544FF2D2BD84EA90EABD81905F071
:100490008FFB2F460EB9002F6ED14FF40072002152
:1004A0004EA805F061FCBBF1FF3F01D0002E79D0D2
:1004B0000C9B13B90D9B002B68D03D464445ADD035
:1004C000A8EB04030C934FF400730D93BBF1FF3FB3
:1004D000C0D09E4202D20D960122BCE70022BAE7AC
:1004E000A5F5807AA2EB0A024EA90EABD81905F049
:1004F0005FFB06990EA802F029FD2E4B9B6813F4B2
:10050000807FFAD1069B03F5807307934FF48072C6
:1005100000210EA805F028FCBAF1FF0F0CD80D99A8
:10052000A1EB0A0152464EAB19440EA805F040FB60
:100530005746079B0693ADE70D99A1EB0A014FF4CF
:1005400080724EAB19440EA805F032FBA5F5007A77
:1005500007990EA802F0FAFC164B9B6813F4807FF3
:10056000FAD1069B03F5007307934FF480720021C4
:100570000EA805F0F9FBD2E706990EA802F0E6FCFA
:100580000C4B9B6813F4807FFAD186E7BBF1FF3FE9
:1005900006D19DF82F30012B04D00123049301E0F4
:1005A0000123049304980DF54F7DBDE8F08F00BF43
:1005B000D00000300090005008B50368B3F1FF3F51
:1005C00006D0044B9860036883F308884368984713
:1005D00008BD00BF00ED00E070B506460D460024E2
:1005E00011E0B3F5004F03D9A119C1F30E03D3B144
:1005F000A119012002F044FC04F580540D4B9B68C6
:1006000013F4807FFAD1AC4213D22B1BB3F5803F99
:10061000E7D9A1198AB2002AE3D1032002F030FC05
:1006200004F58034EAE7022002F02AFC04F50044D5
:10063000E4E770BD00900050F0B5064601F0030EEF
:100640008F084FF0FF30002517E040F300011D4AEE
:100650000A4082EA500001339BB2072BF5D90CF116
:10066000080C1FFA8CFCBCF11F0F05D824FA0CF300
:10067000DBB258400023F0E70135BD4204D256F802
:1006800025404FF0000CEEE7BEF1000F18D056F8F1
:100690002550002401E00834A4B2B4EBCE0F0FDAE9
:1006A00025FA04F3DBB258400023072BF3D840F3BC
:1006B0000001044A0A4082EA500001339BB2F4E789
:1006C000C043F0BD2083B8ED18B108B505F07EFA3F
:1006D00008BD0020704708B50846FFF7F5FF08BDC4
:1006E00008B505F07BFA08BD08B50846FFF7F8FF26
:1006F00008BD000070B584B00D461646447E14F067
:10070000040414D00D2231466846FFF799FD10E02D
:10071000A01902F093FB04F110036B4403F8100CD2
:10072000104B9B6813F4807FFAD10134E4B20C2C97
:10073000EED900231C46072B0AD803F115026A44A0
:1007400012F8102CD9008A4014440133DBB2F2E7CE
:100750006B4607CB28606960AA601B782B73204624
:1007600004B070BD009000502DE9F041A0B00446E7
:100770000F46164603A9FFF7BDFF0546606BA8426A
:1007800004D00124204620B0BDE8F0810E4B19684A
:100790000E48FFF721FF00230B930993DFF8308009
:1007A0004346052203A907A802F0A0FA009506F126
:1007B0000D033A4607A92046FFF71CFE04464146B2
:1007C00007A802F055FADDE7EC02003000800010C7
:1007D0004C5E001038B54268204B9A423CD104462A
:1007E000037EFF2B01D0002037E08568C1680069D7
:1007F000FFF722FF85422BD16269194B9A4223D31E
:10080000637E13F0040F07D1637E13F0010F10D144
:1008100000232376012020E0124DD4F81A00D4F8EA
:100820001E10D4F82220D4F826300FC5FFF7BEFDE5
:10083000EAE7226961692046FFF796FF0028E7D0C2
:1008400008232376002008E007232376002004E015
:1008500006232376002000E0002038BD43655AA51A
:1008600000800010A004003010B510F0010F11D16D
:10087000C3B213F002040FD113F004020DD113F030
:10088000080F11D113F0100F10D113F0200F0FD15A
:10089000032402E0012400E001245422FF21054842
:1008A00005F062FA204610BD1446F6E70124F4E78D
:1008B0000224F7E700000030F8B558B94FF0805037
:1008C000856A4FF4FE430446002D44D09D4206D372
:1008D000002041E0234CA56A4FF41123F4E722499C
:1008E000294421F0FF01214802F080FA204B9B6847
:1008F00013F4807FFAD11D4B1A681E4B9A422CD1FB
:100900001A4B5B68AB4201D0002025E01A4E3246FC
:100910002946204600F0EAFC184F144C3D4604F1ED
:10092000080CBCE80F000FC59CE80F0085E80F001D
:1009300007F1200528340FCC0FC594E80F0085E897
:100940000F0000F063FB0E4A3146384600F0FAFA19
:1009500028B9012000E00020F8BD0020FCE70020BD
:10096000FAE700BF00800010FF800010A0030030F5
:1009700000900050534EBF58000300306003003019
:1009800020030030F8B5FFF705FD4FF0A0431B68CA
:100990004FF050231E693046FFF766FF3C4B18703E
:1009A00018B100F0A3FB002412E03A48FFF704FE60
:1009B000F7E73948204402F041FA384D28553848C5
:1009C000204402F03BFA254485F820000134E4B2CB
:1009D0001F2CEED9314A1368126A013B13F1030F41
:1009E0000CD8B2F1FF3F0DD07AB1294B1F78012FFF
:1009F0000ED0022F0ED00025012701E000252F4642
:100A0000002412E000252F46FAE700252F46F7E7DD
:100A10000025F5E701252F46F2E72248204402F0A1
:100A20000DFA214B18550134E4B20F2CF5D91E4BA9
:100A30001B681E4A527E12F0040F03D0013B13F1D3
:100A4000030F16D8012D09D0012F14D03046FFF71F
:100A5000EFFBC8B90F48FFF7AFFDFEE71348FFF7FC
:100A60001DFC05460128EFD11048FFF7B3FE0546EF
:100A7000EAE70025E8E70120FFF71EFF0028E5D19F
:100A8000012DE3D1FFF7C2FB03F05AFFE2E700BFFD
:100A9000D001003000800010A1E10F1020030030D1
:100AA000C1E10F1081E10F10F002003000000030B2
:100AB00030B5002304E051F8234040F823400133CF
:100AC000941F9C42F7D80C2A65D00E2A00F0B28001
:100AD0000A2A2CD030BD0368574A125D5340C268C1
:100AE000C2F3072C554911F80CC083EA0C03C2F37A
:100AF000074C11F80CC083EA0C234FEA126C11F872
:100B00000CC083EA0C435FFA82FC11F80C1083EAF4
:100B10000163036141684B40436181684B408361DD
:100B20005340C36101341030092CD4D9D2E70024DA
:100B3000FAE70368404A525C53404269C2F3072C0B
:100B40003E4C14F80CC083EA0C03C2F3074C14F8B3
:100B50000CC083EA0C234FEA126C14F80CC083EA31
:100B60000C435FFA82FC14F80C4083EA046383614F
:100B700044686340C361846863400362C46863403F
:100B800043620469634083625340C3620131183099
:100B90000729CED99EE70021FAE703682649895C38
:100BA0004B40C169C1F3072C244C14F80CC083EAF4
:100BB0000C03C1F3074C14F80CC083EA0C234FEA72
:100BC000116C14F80CC083EA0C435FFA81FC14F832
:100BD0000CC083EA0C63036245686B40436285681E
:100BE0006B408362C5686B40C3625FFA83FC14F894
:100BF0000CC0056985EA0C0CC3F3072E14F80EE04F
:100C00008CEA0E2CC3F3074E14F80EE08CEA0E4C5F
:100C10001B0EE35C8CEA0363036344696340436334
:100C20008469634083635940C16301322030062ADE
:100C3000B3D94FE70022FAE7545E0010605E00105F
:100C4000D0B108B50346C02A0ED0B2F5807F0FD0D0
:100C5000802A13D10A2280F8002193F80021184637
:100C6000FFF726FF002008BD0C2280F80021F4E7E2
:100C70000E2280F80021F0E7012070470120F2E702
:100C800008B5014690F8002101329200014800F0B9
:100C90001EFA08BD001C007030B108B590F80001C4
:100CA00000F024F9002008BD0120704708B5064B6C
:100CB0001B68AE2B01D1002008BD00F0DFF8024B0D
:100CC000AE221A60F7E700BFB004003090B100B563
:100CD0000346D1F800E0D1F804C08868CA68C3F8B8
:100CE000F0E0C3F8F4C0C3F8F800C3F8FC2000201B
:100CF0005DF804FB012070472DE9F0479946DDF8C7
:100D000020A0099B70B30C4615468046DAF80060B7
:100D10000AE014F8013B19F80620534005F8013B9E
:100D2000013606F00F063B465F1EB3B1002EF0D130
:100D30004A4608F1F0014046FFF7AEFF1023002BB2
:100D4000E7D0013B08EB030292F8F0000130C0B29B
:100D500082F8F0000028F2D0DBE7CAF800601846FD
:100D6000BDE8F0870120FBE708B54FF4887202491F
:100D7000024804F01DFF08BDAC620010E0160070D0
:100D800008B54FF4AA720249024804F011FF08BDE9
:100D9000BC6300100015007008B54FF4CA72024918
:100DA000024804F005FF08BD906500105C13007058
:100DB00008B580220249034804F0FAFE08BD00BFCE
:100DC000106500105416007008B5DC220249034873
:100DD00004F0EEFE08BD00BFD0610010801200706C
:100DE00008B54FF41C720249024804F0E1FE08BD48
:100DF000605F00100010007008B5FFF7B5FFFFF747
:100E0000D7FFFFF7C9FFFFF7BBFFFFF7DDFFFFF7D6
:100E1000E7FF08BD0023072B04D850F823201AB998
:100E20000133F8E701207047002070470723002BAB
:100E300013DB10B450F8234051F82320944207D814
:100E400008D3013B002BF5DA00205DF8044B704716
:100E50000120FAE74FF0FF30F7E7002070474FF02E
:100E6000E04213686FF30C031843090201F4F851D0
:100E7000084340F4803010607047000038B5144DCE
:100E80008422144905F1400004F092FE124CB8226D
:100E90001249204604F08CFE114B0FCB85E80F0061
:100EA000E034104D0FCD0FC40FCD0FC40FCD0FC4C4
:100EB0002B68236070340C4D0FCD0FC40FCD0FC4C1
:100EC0000FCD0FC495E80F0084E80F0038BD00BFB8
:100ED00000100070E0680010001100702868001019
:100EE00018680010E4670010A467001038B50446C5
:100EF00015460422104800F0EAF8631E0F4CC4F8AF
:100F0000403D0F4B0FCB84E80F0000210320FFF77B
:100F1000A6FF4FF0E0431B6813F0807FF9D04FF03D
:100F2000E042136843F0004313600422024928465C
:100F300000F0CDF838BD00BFF01C0070001000704C
:100F400018680010F8B504460F461546FFF762FF13
:100F5000002847D104F120063046FFF75BFF002848
:100F600042D121462248FFF761FF01283ED1314698
:100F70001F48FFF75BFF012801D0052033E008225E
:100F800021461C4800F08EF8082231461A4800F02D
:100F900089F808223946194800F084F808222946C1
:100FA000174800F07FF8082205F12001154800F0ED
:100FB00079F800210820FFF752FF4FF0E0431B684B
:100FC00013F0807FF9D04FF0E042136843F0004304
:100FD00013600D4BD3F8003C012B01D0052002E03B
:100FE000002000E00520F8BD0520FCE70520FAE719
:100FF00024670010D81C0070B41C0070441D0070E1
:10100000FC1C0070201D00700010007010B50E4B0D
:101010000E4A1A6008220E490E4800F043F80822D2
:101020000D490E4800F03EF80D4C082221460D48AF
:1010300000F038F8082204F120010B4800F032F8E3
:10104000FFF7DAFE10BD00BFB00400300000C5ECB1
:10105000846700100018007024670010481C00709E
:10106000446700102418007048180070844688B146
:1010700091B19AB1884213D0002307E0D01A013809
:1010800051F8200000BA4CF8230001339342F5D305
:1010900000207047012070470120704701207047F1
:1010A00001207047002393420DD210B451F8234021
:1010B00040F8234001339342F8D3002240F8232024
:1010C0005DF8044B7047002240F82320704700234E
:1010D00093420AD210B451F8234040F82340013320
:1010E0009342F8D35DF8044B70477047014B0022E0
:1010F0001A607047B00400304FF0E0431B6813F0F3
:10110000006FF9D14FF0E0431B6813F0007F05D06A
:101110004FF0E042136843F0004313604FF0E043A8
:10112000D86019611A6842F400321A6070470000F2
:1011300008B50023036043600F4B4FF4B4421A60BC
:101140004FF0E0431B6813F0406F00D0FEE7082229
:101150000A490B48FFF7BBFF40220A490A48FFF73C
:10116000B6FF4FF0E04300229A604FF480725A605D
:1011700001225A6108BD00BFB0040030A46A00100B
:1011800000190070A4690010001800702DE9F843E0
:10119000224B1B68B3F5B44F3BD105460E461446AF
:1011A000D2B3036803F03F07C7F14008134403605C
:1011B000934202D24368013343600FB1444504D2E5
:1011C0003F2C13D8E4B9204624E005F10809424633
:1011D000314609EB070004F0EBFC40214846FFF7DD
:1011E0008BFF403F3C4446440027E9E724F03F089A
:1011F00041463046FFF780FFA4EB08044644E1E790
:1012000005F1080022463146384404F0D1FC0020A4
:1012100000E00520BDE8F8830520FBE7B0040030BE
:101220002D4B1B68B3F5B44F55D130B583B005468F
:101230000C4600294AD002684368DB0043EA527337
:10124000D1001BBA009309BA019102F03F02372A7C
:101250003ED8C2F1380221492846FFF797FF0822FD
:1012600069462846FFF792FF4FF0E0431B6813F0F2
:10127000007FF9D04FF0E042136843F00043136061
:10128000174BD3F8002912BA2260D3F8042912BAF6
:101290006260D3F8082912BAA260D3F80C2912BAF6
:1012A000E260D3F8102912BA2261D3F8142912BAD5
:1012B0006261D3F8182912BAA261D3F81C391BBA9B
:1012C000E361082207490848FFF701FF03B030BD7A
:1012D000C2F17802BFE77047B004003064690010C3
:1012E00000100070A46A001000190070F0B59BB0E7
:1012F00006460C46174608A8FFF71AFF09E02546E0
:101300002A46314608A8FFF741FF06F58036641BE0
:1013100005D0B4F5803FF2D34FF48035F0E769464D
:1013200008A8FFF77DFF082269463846FFF79EFEB2
:101330001BB0F0BD2DE9F04F91B005910992C36843
:101340000193D0F840A0036B0493436B0893836B25
:101350000A93C36B0C938378079301780D914278BD
:101360004FF4807303FA02F2CB40D31A0E9305694F
:101370004369069383690293D0F828B0C36A0B933C
:10138000C3690093026A436A002103910F9018E138
:10139000C0F5006200EB5212019921F81E2001F500
:1013A0002070BBF1000F01D10B9A8AB14FEA0B22DA
:1013B0000299002940F0788206994E1EAE5D3244B3
:1013C0000E990A400D998A4002EB420200EB42005E
:1013D0000BF1010BBAF1060F00F2AE82BAF1030F66
:1013E00094BFAAEB0A0AAAF1030A4688B7F1807FE4
:1013F00006D23F02009A12F801CB4CEA0323009276
:10140000FA0A06FB02F2934280F05182C6F50067A9
:1014100006EB5717478002264FEA460C00EB460EB4
:1014200030F81670B2F1807F06D21202009E16F8D4
:10143000018B48EA03230096D60A07FB06F6B3425F
:1014400080F03C82C7F5006207EB5212AEF8002034
:101450004FEA4C0700EB4C0E30F81CC0B6F1807F11
:1014600006D23602009A12F8018B48EA0323009252
:10147000F20A0CFB02F2934280F02982CCF500665E
:101480000CEB5616AEF800604FEA470C00EB470E27
:1014900030F81770B2F1807F06D21202009E16F863
:1014A000018B48EA03230096D60A07FB06F6B342EF
:1014B00080F01582C7F5006207EB5212AEF80020EB
:1014C0004FEA4C0700EB4C0E30F81CC0B6F1807FA1
:1014D00006D23602009A12F8018B48EA03230092E2
:1014E000F20A0CFB02F2934280F00282CCF5006615
:1014F0000CEB5616AEF800604FEA470C00EB470EB7
:1015000030F81770B2F1807F06D21202009E16F8F2
:10151000018B48EA03230096D60A07FB06F6B3427E
:1015200080F0EE81C7F5006207EB5212AEF80020A2
:101530004FEA4C0700EB4C0E30F81CC0B6F1807F30
:1015400006D23602009A12F8018B48EA0323009271
:10155000F20A0CFB02F8434580F0DB81CCF5006217
:101560000CEB5212AEF800204FEA470900EB470699
:1015700030F81770B8F1807F07D24FEA0828009A38
:1015800012F8010B40EA032300924FEAD82007FB30
:1015900000F0834280F0C781C7F5006207EB52126A
:1015A00032800246029905F80190013102910299B8
:1015B0000598814280F03F8600990998814280F029
:1015C00034864FF0FF3607998E402BEA06064FEA25
:1015D000061C0AEB061606F1004EAEF5807E019958
:1015E00031F81E00B2F1807F06D21202009F17F878
:1015F000018B48EA03230097D70A00FB07F7BB4299
:10160000FFF4C6AED21BDB1BA0EB5010019921F8F2
:101610001E000AF1100E31F81E70B2F1807F06D262
:101620001202009810F8018B48EA03230090D00AB8
:1016300007FB00F0834280F0EE82C7F5006207EB03
:101640005212019921F81E200AF10C0AA1F5C06678
:101650003788B0F1807F06D20002009A12F801EBC1
:101660004EEA03230092C20A07FB02F2934280F083
:10167000B283C7F5006007EB5010308006EB4C06D4
:101680007088B2F1807F06D21202009F17F801CB5A
:101690004CEA03230097D70A00FB07F7BB4280F010
:1016A0008383C0F5006200EB521272800220420078
:1016B00006EB400E36F810C0B7F1807F06D23F022D
:1016C000009810F8018B48EA03230090F80A0CFBFD
:1016D00000F0834280F06F83CCF500670CEB571766
:1016E000AEF800704FEA420C06EB420736F8126083
:1016F000B0F1807F06D20002009A12F801EB4EEAA8
:1017000003230092C20A06FB02F2934280F05B833D
:10171000C6F5006006EB50103880ACF1080CBAF149
:101720000B0F40F28084BCF1030F00F20B840CF12C
:101730000100C001019908444788B2F1807F06D2B8
:101740001202009E16F801EB4EEA03230096D60A19
:1017500007FB06F6B34280F0F983C7F5006207EB9A
:10176000521242800222570000EB420830F812E089
:10177000B6F1807F06D23602009A12F8019B49EA40
:1017800003230092F20A0EFB02F2934280F0E583FB
:10179000CEF500660EEB5616A8F800604FEA470E2D
:1017A00000EB470830F81770B2F1807F06D21202C2
:1017B000009E16F8019B49EA03230096D60A07FB10
:1017C00006F6B34280F0D183C7F5006207EB5212F0
:1017D000A8F800204FEA4E0700EB4E0830F81EE054
:1017E000B6F1807F06D23602009A12F8019B49EAD0
:1017F00003230092F20A0EFB02F2934280F0BE83B2
:10180000CEF500660EEB5616A8F800604FEA470EBC
:1018100000EB470830F81760B2F1807F06D2120261
:10182000009F17F8019B49EA03230097D70A06FB9C
:1018300007F7BB4280F0AA83C6F5006206EB52129E
:10184000A8F800204FEA4E0600EB4E0830F81E00C4
:10185000B7F1807F06D23F02009A12F801EB4EEA00
:1018600003230092FA0A00FB02F2934280F097836E
:10187000C0F5006700EB5717A8F80070403E032E34
:1018800040F2BD83770807F1FF3E06F0010040F00B
:1018900002000D2E00F2F08300FA0EF00199A1F57E
:1018A0005068013001268DE302994E1E86E59B1A91
:1018B000A6EB56164680BA1A0326ADE59B1BA7EB8E
:1018C0005717AEF800700CF1010C961BC0E59B1A7F
:1018D000ACEB5C1CAEF800C00137B21AD4E59B1B20
:1018E000A7EB5717AEF800700CF1010C961BE7E55B
:1018F0009B1AACEB5C1CAEF800C00137B21AFBE5DA
:101900009B1BA7EB5717AEF800700CF1010C961B50
:101910000EE6A3EB0803ACEB5C1CAEF800C001378D
:10192000A6EB080820E6A8EB00021B1AA7EB571746
:10193000378009F1010935E60299049C0A1B8C42A3
:1019400040F21981069E324415F802C0BAF1090F1F
:1019500000F213810322AAEB020A4FEA4C0E0EF4A6
:10196000807E0EF2011200EB420830F81220B7F12F
:10197000807F06D23F02009E16F8019B49EA0323AE
:101980000096FE0A02FB06F6B34280F0F880C2F52C
:10199000006702EB5717A8F800708EF4807E0222D1
:1019A0000EEA8C090EEB0907174400EB470430F8E8
:1019B0001780B6F1807F06D23602009F17F8011B10
:1019C00041EA03230097F70A08FB07F7BB4280F0C0
:1019D000DE80C8F5006608EB56162680520089EABC
:1019E0000E0909EACC0809EB0806164400EB460488
:1019F00030F816E0B7F1807F06D23F02009E16F85D
:101A0000011B41EA03230096FE0A0EFB06F6B342D1
:101A100080F0C680CEF500670EEB57172780520086
:101A200088EA090808EA0C1E08EB0E07174400EBC9
:101A3000470430F81790B6F1807F06D23602009F37
:101A400017F8011B41EA03230097F70A09FB07F780
:101A5000BB4280F0AE80C9F5006609EB56162680C1
:101A600052008EEA080E0EEA4C190EEB09061644D7
:101A700000EB460430F81680B7F1807F06D23F02B3
:101A8000009E16F8011B41EA03230096FE0A08FB9C
:101A900006F6B34280F09680C8F5006708EB57174A
:101AA0002780520089EA0E0909EA8C1809EB080719
:101AB000174400EB470430F81770B6F1807F08D266
:101AC0003602DDF800E01EF8011B41EA0323CDF8E1
:101AD00000E04FEAD62E07FB0EFE73457BD2C7F51A
:101AE000006607EB56162680520088EA090808EAC5
:101AF000CC1608EB0607174400EB470430F81790A4
:101B0000BEF1807F07D24FEA0E2E009F17F8011B0F
:101B100041EA032300974FEADE2709FB07F7BB42A0
:101B200063D2C9F5006E09EB5E1EA4F800E04FEA2F
:101B3000420986EA080606EA0C2C66444E4400EB8D
:101B4000460C30F81600B7F1807F06D23F02009AAB
:101B500012F8016B46EA03230092FA0A00FB02F234
:101B600093424DD2C0F5006600EB5616ACF800600B
:101B70004FEA490916E50026E5E60622EBE69B1B3F
:101B8000A2EB5212A8F80020BE1B032208E7DB1BC1
:101B9000A8EB5818A4F8008052000132F71B20E788
:101BA0009B1BAEEB5E1EA4F800E052000132BE1B90
:101BB00038E7DB1BA9EB5919A4F800905200013259
:101BC000F71B50E79B1BA8EB5818A4F800805200A5
:101BD0000132BE1B68E7A3EB0E03A7EB5717278064
:101BE00052000132A6EB0E0E81E7DB1BA9EB59195F
:101BF000A4F80090520002F10109AEEB07079AE742
:101C00009B1AA0EB5010ACF800004FEA490909F10B
:101C10000109BA1AC6E4121A1B1AA7EB5717019941
:101C200021F81E700AF11C0E31F81E70B2F1807F8F
:101C300006D21202009810F8018B48EA03230090A4
:101C4000D00A07FB00F083424CD2C7F5006207EBD5
:101C50005212019921F81E2006F10046A6F5C06631
:101C600031F81670B0F1807F06D20002009A12F8A7
:101C700001EB4EEA03230092C20A07FB02F29342F1
:101C800010D3801A9B1AA7EB5717019A22F81670E7
:101C9000BAF1060F00F285804FF0080A019AA2F50A
:101CA0002066D5E4C7F5006007EB5010019921F8D4
:101CB00016000299049C081B8C420ED9069E3044E3
:101CC000285C02996854013102910BF1010BBAF1C1
:101CD000060F04D84FF0090A69E40026EFE74FF039
:101CE0000B0A64E4121A1B1AA7EB5717019921F883
:101CF0001E700AF1280731F81760B2F1807F06D212
:101D00001202009810F801EB4EEA03230090D00A6B
:101D100006FB00F083420BD2C6F5006206EB5212BE
:101D2000019921F81720049A089904910892AFE7C5
:101D3000121A1B1AA6EB5616019921F817600AF120
:101D4000340E31F81E70B2F1807F06D21202009874
:101D500010F8016B46EA03230090D60A07FB06F64B
:101D6000B3420ED2C7F5006207EB5212019921F877
:101D70001E203046049A0A99049108990A91089203
:101D800086E7901B9B1BA7EB5717019A22F81E7042
:101D9000049A0C9904910A990C9108990A91089255
:101DA00076E74FF00B0A79E7DB1BA0EB5010708051
:101DB000D71B03207BE41B1AACEB5C1CAEF800C005
:101DC0000132381A8EE49B1AA6EB56163E800CF1AF
:101DD000010C821AA1E4801A9B1AA7EB57173780CF
:101DE000B6F810E0B0F1807F06D20002009A12F837
:101DF000017B47EA03230092C70A0EFB07F7BB42A9
:101E00006BD2CEF500620EEB521232820CF1080C4E
:101E100006EB4C004288B7F1807F06D23F02009E5D
:101E200016F801CB4CEA03230096FE0A02FB06F6E5
:101E3000B3423BD2C2F5006702EB5717478002223C
:101E4000570000EB420E30F812C0B6F1807F06D288
:101E50003602009A12F8018B48EA03230092F20A34
:101E60000CFB02F2934228D2CCF500660CEB56161E
:101E7000AEF800604FEA470C00EB470630F81770E9
:101E8000B2F1807F06D21202009810F801EB4EEA00
:101E900003230090D00A07FB00F0834215D2C7F558
:101EA000006207EB52123280024638E49B1BA2EB21
:101EB00052124280BE1B0322C2E79B1AACEB5C1C91
:101EC000AEF800C00137B21AD4E7121A1B1AA7EBFA
:101ED000571737800CF1010C21E4C21BDB1BAEEB62
:101EE0005E1EA6F810E006F500764FF0010C09E042
:101EF000121A1B1AA1EB511121800CF1010CBCF13B
:101F0000FF0F1BD84FEA4C0C06EB0C0436F80C10F4
:101F1000B2F1807F06D21202009810F8017B47EAE6
:101F200003230090D00A01FB00F08342E0D2C1F508
:101F3000006201EB521121800246E0E7ACF1F00CA7
:101F4000FFF7EDBB4FF40070FFF7F4BB9B1BA7EB53
:101F500057174780961B032205E49B1AAEEB5E1EC3
:101F6000A8F800E00137B21A18E49B1BA7EB57173B
:101F7000A8F800700EF1010E961B2BE49B1AAEEB35
:101F80005E1EA8F800E00137B21A3FE4DB1BA6EBA7
:101F90005616A8F800600EF1010ED71B52E49B1AEA
:101FA000A0EB5010A8F800000136BA1A66E4521AE5
:101FB0005B1AA4EB541428F8074076003044BEF1B5
:101FC000010E1BD0470038F81040B2F1807F06D2D6
:101FD0001202009911F8019B49EA03230091D10AEA
:101FE00004FB01F18B42E2D2C4F5006204EB521211
:101FF00028F80720304476000A46E0E7861B701C6C
:10200000BAF1120F00F2EE804FF0070A0B9F07B9EA
:102010005F46BE4280F0E9800A990C9108990A91C6
:102020000499089104900CF102000390059C029918
:10203000661A00F0FD80864228BF0646049C081BF5
:102040008C4240F2DF80069F3844B3440399891BD9
:10205000039106990F1AB742C0F0D68002996F1803
:10206000401A07EB060C31440291395C07F8011B5A
:10207000BC45FAD1FFF79BBA053F0AE052089B1A0C
:10208000400000EBE370013002EAE3710B44013FD2
:102090000AD0B2F1807FF1D21202009911F8014BFF
:1020A00044EA03230091E9E74FEA001901994E88B9
:1020B000B2F1807F06D21202009810F8017B47EA45
:1020C00003230090D00A06FB00F0834268D2C6F5D5
:1020D000006206EB521201994A8002264FEA460E30
:1020E000019A32F81670B0F1807F06D20002009A91
:1020F00012F8018B48EA03230092C20A07FB02F29E
:10210000934255D2C7F5006007EB5010019921F8B2
:102110000E0002364FEA460E019931F81670B2F100
:10212000807F06D21202009810F8018B48EA032340
:102130000090D00A07FB00F0834242D2C7F500624C
:1021400007EB5212019921F80E2004364FEA460E91
:10215000019A32F81670B0F1807F06D20002009A20
:1021600012F8018B48EA03230092C20A07FB02F22D
:1021700093422FD2C7F5006007EB5010019921F868
:102180000E00083E46EA0906B6F1FF3F7FF437AF7E
:10219000DDF83C80AAF10C0A4FF4897103914CE000
:1021A0001B1AA6EB561601994E80101A032695E7C6
:1021B0009B1AA7EB5717019921F80E700436821A63
:1021C000A8E71B1AA7EB5717019921F80E700836DC
:1021D000101ABBE79B1AA7EB5717019921F80E704D
:1021E000821ACFE74FF00A0A10E7DDF83C800CF2C4
:1021F000022103910A990C9108990A910499089176
:1022000004901AE000271FE7029CDDF818C001E0E7
:10221000013E07D02F5C2F55013401308445F7D1A2
:102220000020F5E70294FFF7C2B9DDF83C8004E036
:10223000DDF83C8001E0DDF83C80B2F1807F06D221
:102240001202009810F8014B44EA03230090009911
:10225000C8F81C10C8F82020C8F82430039BC8F820
:102260004430029AC8F81820C8F828B0049AC8F870
:102270003020089AC8F834200A9AC8F838200C9AF6
:10228000C8F83C20C8F840A0B3F5007F03D2002076
:1022900011B0BDE8F08F0120FAE7426C42B38369C8
:1022A000C91A8A4201D909B97047114670B4C46A83
:1022B0002CB94568846A2C1B8C4200D8C562846A9C
:1022C0000C448462521A42640569046B466907E053
:1022D0004FF0000C6244AA5CEA540133013904D087
:1022E0001A1BA342F4D2B446F4E7836170BC704772
:1022F000704710B50446C36A43B94368806A1B1A25
:10230000A069A1EB000C9C4500D9C1182046FFF73D
:1023100011F8E36A23B9A26A63689A4200D3E362C0
:1023200010BD2DE9F04FD0F820E0446A1568C6686A
:10233000076CD0F8288090F802C04FF0FF3303FA02
:102340000CF328EA03034FEA031907EB031C0CF113
:102350000043A3F5807336F813A0BEF1807F08D246
:102360008D4240F21F824FEA0E2E11F8013B43EAE4
:1023700004244FEADE230AFB03F39C4280F093809F
:1023800006F5207EC66A16B9B8F1000F1CD090F889
:1023900001C04FF0FF3606FA0CF628EA060890F85E
:1023A00000C008FA0CF8D0F8109086698EB946691A
:1023B000013E19F80660CCF1080C26FA0CF6B04480
:1023C00008EB48080EEB482E062F2DD84FF0010CD5
:1023D0000DE0013EEDE7D80A06FB00F0844216D37B
:1023E0001B1A241A0CF1010CBCF1FF0F11D84FEA93
:1023F0004C0C3EF80C60B3F1807FECD2A94280F027
:10240000D3811B0211F8010B40EA0424E3E70346E1
:10241000EAE70120B3F1807F03D2A94280F0DE8198
:1024200001311160BDE8F08FD0F81080D0F818C0ED
:10243000076BACEB0706BC4508D24069304418F87E
:1024400000704FF0010C4FF480760EE00020F5E7AD
:10245000D80A09FB00F084421BD24FEA4C0C86EAF2
:1024600008060346BCF1FF0F1BD87F0006EA0708E9
:1024700006EB080060443EF81090B3F1807FE7D28D
:10248000A94280F093811B0211F8010B40EA042459
:10249000DEE71B1A241A4FEA4C0C0CF1010C4646DD
:1024A000E0E70120B6E7AEEB030EE41A07F11003F4
:1024B00036F81330BEF1807F08D2A94280F07881CF
:1024C0004FEA0E2E11F8010B40EA04244FEADE2AEF
:1024D00003FB0AFA544521D2A6F5C06702204FF04B
:1024E0000008B7F800C0BAF1807F08D2A94280F096
:1024F00069814FEA0A2A11F8013B43EA04244FEAB2
:10250000DA230CFB03F39C427CD207EB49074FF024
:1025100000094FF0080A4FF0010E9FE0AEEB0A0EE3
:10252000A4EB0A0407F11C0336F81330BEF1807FD8
:1025300008D2A94280F03E814FEA0E2E11F8010B1D
:1025400040EA04244FEADE2A03FB0AFA544521D26A
:102550000CF10043A3F5C06336F81300BAF1807F95
:1025600008D2A94280F028814FEA0A2A11F8013BDB
:1025700043EA04244FEADA2300FB03F39C42C0F051
:102580000F81AAEB030AE41AA6F5206703204FF097
:102590000C08A6E7AEEB0A0EA4EB0A0407F1280329
:1025A00036F81330BEF1807F08D2A94280F0068150
:1025B0004FEA0E2E11F8010B40EA04244FEADE2AFE
:1025C00003FB0AFA5445DFD3AEEB0A0EA4EB0A0470
:1025D000343736F81730BEF1807F08D2A94280F038
:1025E000EF804FEA0E2E11F8010B40EA04244FEA67
:1025F000DE2A03FB0AFA5445C6D3A4EB0A04AEEB69
:102600000A0AC1E7AAEB030AE41AB7F810C0BAF144
:10261000807F08D2A94280F0D7804FEA0A2A11F8B9
:10262000013B43EA04244FEADA230CFB03F39C4208
:1026300007D209F1080907EB49074FF00809CA4614
:1026400069E7E41A07F50077AAEB03034FF01009D6
:102650004FF4807A5FE76346D6451BD24FEA4E0EB1
:1026600037F80EB0B3F1807F07D2A94280F0AE8078
:102670001B0211F801CB4CEA04244FEAD32C0BFBCC
:102680000CFC6445E7D3A3EB0C03A4EB0C040EF1A4
:10269000010EE1E7AEEB0A0EF144B8F1030F3FF68D
:1026A000B9AEB9F1020F05D809F101094FEAC9180D
:1026B00001270FE04FF40078FAE74FEAD32C0EFB26
:1026C0000CFC644516D3A3EB0C03A4EB0C040137FC
:1026D0003F2F11D87F0007EB080C36F80CE0B3F160
:1026E000807FEAD2A94273D21B0211F801CB4CEAD7
:1026F0000424E2E76346EBE7403F032F7FF68AAE10
:102700004FEA570E0EF1FF3C0D2F0FD807F00107CF
:1027100047F0020707FA0CF707F10047A7F5D06763
:1027200006EB47064FF00108C14626E0AEF1050C66
:1027300008E05B08E71AFF0F013F1F40E41BBCF1F4
:10274000010C0AD0B3F1807FF3D2A94242D21B021E
:1027500011F8017B47EA0424EBE74FF0040CE1E7B2
:10276000DF0A0EFB07F7BC4214D2C1444FEA480807
:102770003B46BCF1010C3FF44DAE36F819E0B3F125
:10278000807FEDD2A94227D21B0211F8017B47EAD4
:102790000424E5E7DB1BE41B4FEA4808C144E8E7F3
:1027A000032037E600203DE600203BE6002039E626
:1027B000002037E6002035E6002033E6002031E631
:1027C00000202FE600202DE600202BE6002029E641
:1027D000002027E6002025E6002023E6002021E651
:1027E00010B5044608464B682169984700232361C9
:1027F00010BD40F2131343640023C36421B183620C
:10280000C3624FF48A73436412B14FF48A73436412
:10281000704708B50022826101221146FFF7E9FFE7
:1028200008BD00002DE9F04F85B0054689461446E5
:102830009B469DF838101E6800221A600F9B1A7084
:10284000426CB2F5897F69D9B2F58A7F16D940F218
:10285000FF139A4202D04FF0010AB7E04FF00B0A83
:10286000B4E05A1CEA6414F8012B2B4483F850207E
:10287000DBF800300133CBF80030013E16B1EB6CD1
:10288000042BEED9EA6C22B195F85000002840F0F4
:102890006481042A2AD995F8510095F8522012042F
:1028A00042EA006295F8530042EA002295F854008B
:1028B00002436A62E86A28B9A86A18B9AB4882423A
:1028C00000F24E814FF0FF322A620022EA646A6C05
:1028D000B2F58A7F1ED32A78687802444FF4407795
:1028E000974007F5F867AB6800220AE003230F9AC8
:1028F00013704FF0000A69E04FF4806023F8120073
:102900000132BA42F8D30122EA63AA636A632A63F6
:1029100000222A6400226A640091F5E00091F3E04D
:102920006B6A002B40F01F8101230F9A13704FF048
:10293000000A4BE004230F9A13704FF0000A45E0A1
:1029400002230F9A13704FF0000A3FE002230F9A00
:1029500013704FF0010A39E04FF0000AEF6C002FBE
:1029600040F0A180132E02D9BAF1000F5BD0A31959
:10297000039303AA21462846FFF7D3FC50B3039BD9
:10298000A3EB04084246B8F1140F54D8BAF1000F73
:1029900001D0022834D12246EC6149462846FFF78F
:1029A000A8FCE9690C1BB8F1000F42DB444542D199
:1029B000361BDBF800302344CBF80030002800F051
:1029C000A2804FF400736B644FF0010A504605B0CB
:1029D000BDE8F08F132E2ED8DBF800203244CBF860
:1029E0000020EE6404E0E25DEB1983F8502001372B
:1029F000BE42F8D803230F9A13704FF0000AE5E7A0
:102A0000DBF800104144CBF80010C5F84C8004E01E
:102A1000E15DEB1983F850100137BA42F8D8022370
:102A20000F9A1370D2E7A6F1140222444FF0FF3838
:102A3000B2E7A642BCD240F2FF136B644FF00B0A20
:102A4000C4E714F80820EB1983F8502008F10108B6
:102A50000137132F01D84645F3D8132F02D9BAF105
:102A6000000F31D005F150010191CB19039303AA56
:102A70002846FFF756FC0346C0B1039F019ABF1AD0
:102A8000EA6CBA42D7D8BAF1000F1FD0022B1DD082
:102A9000DBF80010BA1A1144CBF80010EF640223DF
:102AA0000F9A137092E74FF00008D2E7132FC2D8A5
:102AB000EF64DBF800204244CBF8002003230F9A98
:102AC00013704FF0000A81E74FF0FF3705F150080F
:102AD000C5F81C80424649462846FFF70AFCEA69C9
:102AE000A2EB0802EB6C002F2BDBBA42A3D1D71A62
:102AF000E1199B1A1E44DBF800303B44CBF8003050
:102B00000023EB6418BB0C466B6CB3F5897F3FF474
:102B100007AF49462846FFF7C0FBAB694B45FFF4BA
:102B20001BAF6B6C1BB96A6A002A3FF403AF009AB3
:102B3000002A3FF405AF002B7FF408AF4FF0010AE5
:102B40000CE7142A3FF677AF9A42D0D273E74FF4DE
:102B500000736B644FF0010A38E74FF0010A35E764
:102B60004FF0010A32E74FF0010A2FE7FFFBFFBFEA
:102B70002DE9F04F89B00546029192469946DDF85D
:102B800048B09DF84C3005931768DBF800800023AF
:102B90001360CBF800302EE00023AB6131E039192F
:102BA000059B149A0192009307AB4A462846FFF70B
:102BB00039FE0390079B9944A8EB0308DBF800203B
:102BC0001344CBF80030AB6904931E1B29693246CD
:102BD0002144029802F0ECFF029A32440292049BD4
:102BE000E41A2744DAF800303344CAF80030039B73
:102BF0006BB966B15FB1CDF81C80AB6969698B4276
:102C0000CAD0AC690B1BBB42C9D20023C9E70398E9
:102C100009B0BDE8F08F10B5044608464B68A168BE
:102C200098470023A36010BD70B5044616460B7884
:102C30004A7813444FF440759D4005F5F865836864
:102C400013B1836CAB420FD031462046FFF7E3FF50
:102C50003368690030469847A06038B100F550608D
:102C6000E060A564002070BD0020FCE70220FAE7C8
:102C700038B504460D46FFF7CEFF29462046FFF73C
:102C8000AFFD38BD042A28D94B788A7843EA02235D
:102C9000CA7843EA02430A7943EA0263B3F5805FE4
:102CA00001D24FF4805343600A78E02A17D80D4BC5
:102CB000A3FB02135B0803EBC301521A0270DBB2E1
:102CC000094AA2FB03129108817002F01C0101EB7A
:102CD00092029B1A43700020704704207047042022
:102CE000704700BF398EE338CDCCCCCC70B50446EC
:102CF0001E461C4D2846FFF7C5FF32462946204692
:102D0000FFF792FF6D68B5F1804F05D2B5F5800FE2
:102D100020D240F6FF7200E0134A531923EA02035F
:102D20009D4200D81D46236913B16369AB4209D0A7
:102D300031462046FFF754FD336829463046984710
:102D4000206148B16561074B93E8030084E8030004
:102D5000002070BD054AE0E731462046FFF75BFFE3
:102D60000220F6E7B4040030FFFF3F00FFFF0F0032
:102D7000024B986B20F07F40704700BF00900050DE
:102D800038B504460D46FFF7F3FFC0F307400B4B81
:102D90009C420FD32C44013C132809D0142804D0A2
:102DA000074B9C4208D2002038BD03F57823F8E792
:102DB000044BF6E70120F7E70120F5E7007000106B
:102DC00000F01F1000F0071008B5FFF7D1FFC0F3A7
:102DD0000740132805D0142805D0152800D000205E
:102DE00008BD1320FCE71420FAE7000038B50546BB
:102DF0000C464FF480712046FFF7C2FF012816D021
:102E00000C4B9B6813F4807F12D100F06FFA094BD2
:102E100008221A605C605D61074A5A6401229A6068
:102E200000F06CFA034B986810F48070FAD138BD4A
:102E30000320FCE7009000505442415210B5044674
:102E40000D4B9B6813F4807FFAD100F04FFA0A4BC8
:102E500000221A605C60094A5A6401229A6000F0FC
:102E60004DFA054B9B6813F4807FFAD1024B186929
:102E7000C0F3072010BD00BF0090005054424152E3
:102E800038B5042856D80D46042856D8DFE800F097
:102E90000316222E3A00FFF76BFFC0B2852801D03F
:102EA000012448E04FF480712846FFF769FF04468B
:102EB000012840D0234B20221A6026E04FF4805195
:102EC0002846FFF75DFF0446012834D01D4B212220
:102ED0001A601AE04FF400412846FFF751FF0446FC
:102EE000012828D0174B22221A600EE04FF48031BF
:102EF0002846FFF745FF044601281CD0114B242229
:102F00001A6002E00F4B61221A600E4B9B6813F4AB
:102F1000807F14D100F0EAF90A4B5D600A4A5A64D6
:102F200001229A60074B9C6814F48074FAD100F077
:102F3000E5F900E00124204638BD0124FBE7032425
:102F4000F9E700BF009000505442415270B5064668
:102F50000D464FF480712846FFF712FF0446012802
:102F600016D00D4B9B6813F4807F13D100F0BEF98F
:102F7000094B18221A605D605E61084A5A6401229A
:102F80009A60054B9C6814F48074FAD100F0B6F98D
:102F9000204670BD0324FBE700900050544241528C
:102FA0000288044B1A6242885A6282889A62C288F6
:102FB000DA6270470090005010B582B0FFF7D8FE7B
:102FC00084B200F071F946F2C8539C420ED046F22A
:102FD000C8039C4207D028221E21102809D011289E
:102FE00024D1402306E014221146F6E728221E21B0
:102FF000F3E7302303EB43000230ADF8000003FB9E
:1030000001F10231ADF8021003FB02F20232ADF819
:10301000042003EB830303EB83039B000233ADF82F
:1030200006306846FFF7BCFF02B010BD2023E1E781
:103030000A0B0D4B9B6813F4807F10D1032A10D824
:10304000094B48221A6059605861084A5A640122A3
:103050009A60054B986810F48070FAD1704703208D
:1030600070470120704700BF009000505442415209
:1030700010B50446FFF77CFE104B984214D007D8D9
:103080000F4B984209D00F4B984206D000200AE01F
:103090000D4B984208D0002005E04FF40051204627
:1030A000FFF7C6FF40B910BD00212046FFF7C0FF63
:1030B0000028F8D00120F6E70120F4E7C8651400E5
:1030C00085601300C8601400C865150010B5144B66
:1030D0009B6813F4807F21D100F008F9104B212266
:1030E0001A60FFF771FE142810D10D4B0D4A5A607B
:1030F0000B4B0D4A5A6401229A60094B9C6814F4E8
:103100008074FAD100F0FAF8204610BDFFF75CFE9B
:103110001528EDD1024B054A5A60E9E70324F3E78D
:103120000090005000F00F105442415200F01F1068
:1031300038B51A4B9B6813F4807F2BD105460C469B
:10314000FFF742FE14281AD104F17043A3F57F2340
:10315000B3F5805F20D800F0C9F8104B18221A6030
:103160005C605D610E4A5A6401229A600B4B9C6858
:1031700014F48074FAD100F0C1F8204638BDFFF78E
:1031800023FE1528E7D1074B2344B3F5805FE2D92E
:103190000124F2E70324F0E70124EEE70090005059
:1031A000544241520010E0EF38B5184B9B6813F4BD
:1031B000807F27D105460C46FFF706FE142817D15D
:1031C000134B2B44072B1FD800F090F80F4B102205
:1031D0001A605D601C610F4A5A6401229A600B4BB1
:1031E0009C6814F48074FAD100F088F8204638BD49
:1031F000FFF7EAFD1528E7D1074B2B44072BE3D94E
:103200000124F3E70324F1E70124EFE700900050E5
:103210002800F0EF544241522800E0EF182840D82F
:103220004FF0A04300225A6003281BD81A465B685F
:1032300023F4004353600CD04FF0A042536823F0B6
:1032400003035360536823F00303034353600020D8
:10325000704702F5C042D2F88C3043F48033C2F894
:103260008C30E9E74FF0A0414A6822F4E0620302A3
:1032700003F46F4313434B604B6843F400434B60CC
:10328000002301E000BF0133B3F5806FFAD34FF0A4
:10329000A042536823F0030343F00103536000206E
:1032A00070470520704700BF4FF0A043586800F0FA
:1032B0000300012800D070475868C0F30220103086
:1032C000F9E700BF032807D04FF0A0435A6860F326
:1032D00083025A6000207047034AD2F88C3043F4CE
:1032E0008033C2F88C30EFE70060005072B6024ABB
:1032F0001368013313607047C0040030034A136839
:10330000013B136003B962B6704700BFC0040030D0
:10331000012814D090B9144BD3F8B02042F0020227
:10332000C3F8B020D3F8B02042F00102C3F8B020B7
:10333000D3F8B02022F00102C3F8B02070470A4B46
:10334000D3F8B02042F00202C3F8B020D3F8B02086
:1033500042F00102C3F8B020D3F8B02022F00202FC
:10336000C3F8B020704700BF0060005010B5FFF7F1
:103370002BFD14280CD10A4CE31D9C420ED2207860
:103380007D280CD03E280AD03D2808D00134F4E72F
:10339000FFF71AFD1528EFD1024CEDE73E2010BDD6
:1033A000D8FF0F10D8FF1F10014B1870704700BFD7
:1033B000BC04003000F12640A0F1011017281DD8F0
:1033C000DFE800F00C0C1010101C1C1C1C1C1C1C3A
:1033D0001C1C1C1C1C1C1C1C1C1C14181F290FD979
:1033E000052070470F290DD9052070470A290BD0F9
:1033F000052070470A2909D005207047052070472D
:103400000020704700207047002070470020704760
:1034100038B5044607EE901AB2F90150B2F904002B
:1034200092F9031092F9063004F12642A2F101123A
:10343000032A37D85B1A07EE103AB8EEC77A06EEC1
:10344000905AF8EEE66A77EEE67A67EE277A401B46
:1034500007EE100AB8EEC77AC7EE876AB2EE046AC2
:1034600026EE867AFCEEC77A17EE903AC7EE067A19
:10347000FCEEE77A17EE905A0D4403B10135294668
:103480002046FFF797FF18B9284340F0004013E0AB
:10349000204B2344012B03D90E2040F000400BE0C9
:1034A0000620FAE71C4A944207D01A4B2344012B0A
:1034B0002BD90E2040F0004038BDC91A07EE101A73
:1034C000B8EEC77A06EE900AF8EEE66A77EEE67A8C
:1034D00067EE277A2D1A07EE105AB8EEC77AC7EEB4
:1034E000876AB2EE046A26EE867AC7EE067AFCEEAA
:1034F000E77A17EE905A1D4429462046FFF75AFFF7
:1035000028B9284340F00040D6E70620D2E74FF024
:103510000040D1E7FDFFFEA50500015A07EE901A15
:103520001B4B0344012B01D900207047B2F9010065
:10353000B2F9041092F903C092F90630A3EB0C0320
:1035400007EE103AB8EEC77A06EE900AF8EEE66A91
:1035500077EEE67A67EE277A091A07EE101AB8EEC8
:10356000C77AC7EE876AB2EE046A26EE867AFCEE68
:10357000C77A17EE903AC7EE067AFCEEE77A17EEB6
:10358000900A604403B1013040F00040704700BF32
:10359000E9FFFEA52C4B03440D2B54D8DFE803F0C4
:1035A000072542485353535353535353534E1378A1
:1035B000CB71B2F801300B81B2F809308B81B2F8CF
:1035C00003304B81B2F80B30CB816FF02F030B74BB
:1035D00007234B746FF03B030B7509234B756FF09A
:1035E0001B030B760C234B7670471378CB71B2F824
:1035F00001300B81B2F809308B81B2F803304B8176
:10360000B2F80B30CB816FF07B030B7403234B7448
:1036100008230B7507234B756FF01B030B760C23E8
:103620004B7670471378CB71B2F801304B817047FD
:103630001378CB71B2F803304B8170471378CB719C
:10364000B2F803304B817047FAFFFEA51D4B98423C
:1036500003D01D4B98421AD070471378CB71B2F843
:1036600001300B819388A1F80B30D3788B7293795A
:103670004B736FF02F03CB7307230B7434238B74BE
:103680000823CB746FF067024A758B757047137807
:10369000CB71B2F801300B819388A1F80B30D3784D
:1036A0008B7293794B736FF02F03CB7307230B74DB
:1036B00034238B740823CB746FF067024A758B75C3
:1036C000CAE700BF1700015A1800015A064B98427A
:1036D00000D070471378CB7193784B8153780B816E
:1036E000D3788B81F5E700BF1900015A70B5018AC4
:1036F0000489091BC389B0F80AC0A3EB0C0303FBC0
:1037000001F101EB81014900B0F80CE0AEEB040ED1
:1037100091FBFEF1214AA2FB0165ED082E4605EB67
:103720008505A1EB45050CEB060189B2042D88BF88
:1037300001314182818A091B03FB01F101EB810107
:10374000490091FBFEF1A2FB0165ED082E4605EB59
:103750008505A1EB45050CEB060189B2042D88BF58
:103760000131C182018B091B01FB03F303EB8303CE
:103770005B0093FBFEF3A2FB0312D208114602EB9F
:103780008202A3EB42028C441FFA8CFC042A88BFFD
:103790000CF1010CA0F81AC070BD00BFCDCCCCCC90
:1037A00010B50446FFF7E4FA000C13281FD01428C4
:1037B00039D0152857D12E4BD3F8F8202260D3F8F2
:1037C000FC206260D3F8F420A260D3F8C420E26049
:1037D000D3F8C03003F180532361264A934244D08A
:1037E000002323746374A374E37401203CE0224B30
:1037F000D3F8F8202260D3F8FC206260D3F8F420DC
:10380000A260D3F8C420E260D3F8C03003F1805343
:1038100023611A4A934222D0002323746374A37451
:10382000E374012020E0164BD3F8F8202260D3F88F
:10383000FC206260D3F8F420A260D3F8C420E260D8
:10384000D3F8C03003F1805323610E4A934208D06D
:10385000002323746374A374E374012004E0002044
:1038600002E0002000E0012010BD0020FCE700BFC6
:1038700000FF1F1000F01F1000FF071000F00710DE
:1038800000FF0F1000F00F1030B583B0C379427CF9
:103890008DF80420017D8DF80510C57D8DF806504A
:1038A000013BDBB2012B01D903B030BD02F03F0474
:1038B000164BD3F8902064F30502C3F89020FFF76D
:1038C00055FD3E280BD03D2811D07D280FD00F4B41
:1038D000D3F8902064F30D22C3F890200EE00B4B38
:1038E000D3F8902065F30D22C3F8902006E0074B33
:1038F000D3F8902064F30D22C3F89020034BD3F843
:10390000902064F31542C3F89020CDE7006000508A
:1039100030B583B0C379427C8DF80420017D8DF8E9
:103920000510C57D8DF80650013BDBB2012B01D996
:1039300003B030BD02F03F04164BD3F8942064F37B
:103940000502C3F89420FFF711FD3E280BD03D2857
:1039500011D07D280FD00F4BD3F8942064F30D22A3
:10396000C3F894200EE00B4BD3F8942065F30D229E
:10397000C3F8942006E0074BD3F8942064F30D229B
:10398000C3F89420034BD3F8942064F31542C3F892
:103990009420CDE700600050C379427C013BDBB24C
:1039A000012B00D97047074BD3F8B81062F303011D
:1039B000C3F8B8100132D3F8B81062F31751C3F846
:1039C000B810EFE700600050C379427C013BDBB2E6
:1039D000012B00D97047044BD3F8981062F31341C0
:1039E000C3F89810F6E700BF00600050C379827BEF
:1039F000022A09D0032A09D0012A09D1427C013BBD
:103A0000DBB2012B07D97047027DF8E7C27DF6E7EC
:103A100000221346F3E7044BD3F8981062F30D210C
:103A2000C3F89810EFE700BF00600050C279074B61
:103A30001A700289064B1A804289064B1A808289C5
:103A4000054B1A80C289054B1A807047FC1500305F
:103A5000FA150030F8150030F6150030F415003076
:103A6000C279074B1A700289064B1A804289064BAD
:103A70001A808289054B1A80C289054B1A807047CB
:103A8000F2150030F0150030EE150030EC15003066
:103A9000EA150030C279054B1A70027A044B1A708D
:103AA000B0F80920034B1A80704700BFE9150030B9
:103AB000E8150030E6150030C279034B1A70028910
:103AC000024B1A80704700BFE4150030E215003049
:103AD000C279034B1A700289024B1A80704700BFEB
:103AE000E0150030DE150030C279084B1A700289EB
:103AF000074B1A80827A074B1A70B0F80B20064BDE
:103B00001A80427B054B1A70704700BFDC150030ED
:103B1000DA150030D8150030D6150030D515003034
:103B2000C279084B1A700289074B1A80827A074BB8
:103B30001A70B0F80B20064B1A80427B054B1A70A6
:103B4000704700BFD4150030D2150030D0150030BA
:103B5000CE150030CD150030C279064B1A7002899F
:103B6000054B1A804289054B1A808289044B1A80C2
:103B7000704700BFCC150030CA150030C8150030A2
:103B8000C615003070B505467D2803D03E2801D00B
:103B90003D282AD1FFF718F914280CD1174EF21D31
:103BA0003446002394420CD223789D421FD0FF2B31
:103BB00007D00134F6E7FFF707F91528EFD1104ECB
:103BC000EDE7FF2B15D1944215D829462046FFF783
:103BD000EBFAA64204D12846FFF7E6FB002005E0F9
:103BE0000021601EFFF7E0FAF5E7012070BD01201B
:103BF000FCE70520FAE70220F8E700BFD8FF0F1026
:103C0000D8FF1F100289C379013BDBB2012B00D919
:103C10007047034B596A62F305015962F8E700BF28
:103C2000006000500368B3F1FF3F04D0B0F80530E6
:103C30001BB118447047002070470020704770B1D6
:103C400008B50368B3F1FF3F07D003797E2B05D099
:103C5000FFF7E8FF0028F4D100E0002008BD70471E
:103C600008B518B1FFF7DEFFFFF7E9FF08BD000058
:103C700038B50546FFF7E3FF044606E02846FFF7A0
:103C800003FE2046FFF7ECFF0446C4B3236803F1AC
:103C90002643A3F101130A2BF3D801A252F823F013
:103CA0007D3C0010CD3C0010D73C0010E13C0010E2
:103CB000EB3C0010833C0010833C0010833C001060
:103CC000833C0010833C0010F53C001005F1180007
:103CD000FFF71EFED5E705F13000FFF75DFED0E7E8
:103CE00005F14800FFF770FECBE705F16000FFF734
:103CF0007DFEC6E705F1DD00FFF784FFC1E738BDB3
:103D0000F0B5E1B00023019302930393049305936C
:103D100001A8FFF745FD4FF480520599A04801F036
:103D200047FF20A8FFF7A4F9002840F0918305463B
:103D300028AB93E803001E90ADF87C10090C8DF8B9
:103D40007E109DF87830012B00F0EF80012B40F2BF
:103D5000258104262CAB93E803001E90ADF87C105F
:103D6000090C8DF87E109DF87830012B00F026812B
:103D7000012B01D946F0040630AB93E803001E90F6
:103D8000ADF87C10090C8DF87E109DF87830012B71
:103D900000F05A81012B01D946F0040634AB93E8B8
:103DA00003001E90ADF87C10090C8DF87E109DF874
:103DB0007830012B00F07081012B01D946F0040608
:103DC00038AB93E803001E90ADF87C10090C8DF819
:103DD0007E109DF87830012B00F08781012B01D9EE
:103DE00046F004061AAC3CAB0FCB07C423709DF819
:103DF0006830012B00F0C281012B01D946F0040686
:103E00001AAC40AB0FCB07C423709DF86830012B70
:103E100000F0E981012B01D946F004061AAC44AB4D
:103E20000FCB07C423709DF86830012B00F010827F
:103E3000012B01D946F004061AAC48AB0FCB07C4DE
:103E400023709DF86830012B00F01482012B01D9FA
:103E500046F004061AAC4CAB0FCB07C423709DF898
:103E60006830012B00F00E82012B01D946F00406C8
:103E700050AB93E803001E90ADF87C10090C8DF850
:103E80007E109DF87830012B00F00482012B01D9BF
:103E900046F0040654AB93E803001E90ADF87C1086
:103EA000090C8DF87E109DF87830012B00F05882B7
:103EB000012B01D946F00406589B19939DF86430F4
:103EC000012B00F08C825CAB93E8030017908DF817
:103ED0006010344C1D22FF21204601F045FFA4F262
:103EE0001724022384F8173284F818329DF85C30C6
:103EF000012B00F08A82012B01D946F00406059BB4
:103F000003F17042264BC3F8C02F049AC3F8C42FA4
:103F1000254AC3F8F42F019AC3F8F82F029AC3F880
:103F2000FC2FFFF7D3F82C4689E21D4C0223E371E6
:103F3000BDF879302381BDF87C30A4F80B309DF8B2
:103F40007B30A372CBB263730123A373E37B6FF067
:103F50001D03E373237C04232374144E1EAA144907
:103F60003046FFF755FAC0B2607440F246536382A0
:103F70001EAA10493046FFF74BFAC0B22075637D88
:103F800040236375A37D0623A3751EAA0A49304604
:103F9000FFF73EFAC0B2E0752E46DBE62E46D9E6C4
:103FA000C4050030DB07003001003C5A0100015A13
:103FB00000409C4400C0A8440000C844D54C0223E3
:103FC000E377BDF879302384BDF87C30A4F8233042
:103FD0009DF87B3084F82230CBB284F82530012361
:103FE00084F8263094F827306FF01D0384F82730CA
:103FF00094F82830042384F82830C74F1EAAC749F4
:104000003846FFF705FAC0B284F8290040F246535B
:1040100063851EAAC2493846FFF7FAF9C0B284F890
:104020002C0094F82D30402384F82D3094F82E3055
:10403000062384F82E301EAABA493846FFF7E8F95D
:10404000C0B284F82F0097E6B24C022384F83730D0
:10405000BDF879302387BDF87C30A4F83B309DF85B
:104060007B3084F83A30CBB284F83D30012384F8B9
:104070003E3094F83F304C2384F83F3094F8403081
:10408000042384F840301EAAA749A848FFF7C0F9C6
:10409000C0B284F8410081E69E4C022384F84F3080
:1040A000BDF87930A4F85030BDF87C30A4F8533016
:1040B0009DF87B3084F85230CBB284F85530012320
:1040C00084F8563094F857304C2384F8573094F8DD
:1040D0005830042384F858301EAA93499448FFF7B7
:1040E00097F9C0B284F859006AE68A4C022384F832
:1040F0006730BDF87930A4F86830BDF87C30A4F89A
:104100006B309DF87B3084F86A30CBB284F86D3028
:10411000012384F86E3094F86F306FF0430384F815
:104120006F3094F87030022384F870304FF4487286
:10413000A4F8722094F875206FF0570284F8752067
:1041400094F8762084F876307A4F1EAA7A49384659
:10415000FFF75EF9C0B284F871001EAA77493846AD
:10416000FFF756F9C0B284F874001EAA74493846A5
:10417000FFF74EF9C0B284F8770033E61AAA0AA90D
:104180007048FFF707FA0AA8FFF7B0FA614B02225E
:1041900083F87F20BDF83220A3F88220BDF83620B6
:1041A000A3F88620BDF83020A3F88020BDF8342085
:1041B000A3F88420BDF83A20A3F88A20BDF83E2059
:1041C000A3F88E20BDF84220A3F89220BDF8382035
:1041D000A3F88820BDF83C20A3F88C20BDF840202F
:1041E000A3F890200CE61AAA0AA95748FFF7D2F9BB
:1041F0000AA8FFF77BFA474B022283F89B20BDF801
:104200003220A3F89E20BDF83620A3F8A220BDF8E6
:104210003020A3F89C20BDF83420A3F8A020BDF8DE
:104220003A20A3F8A620BDF83E20A3F8AA20BDF8A6
:104230004220A3F8AE20BDF83820A3F8A420BDF892
:104240003C20A3F8A820BDF84020A3F8AC20E5E569
:104250001AAA0AA93D48FFF79DF99DF82F202D4B7A
:1042600083F8B720BDF83220A3F8B920002283F8E4
:10427000B820E1E5274A82F8C230BDF86930A2F8DB
:10428000C330E7E5234A82F86D31BDF86930A2F802
:104290006E31EDE52E4F1EAA11A93846FFF7D6F96B
:1042A0001C4C022384F8A731BDF84C30A4F8A83187
:1042B000BDF84F30A4F8AB319DF84E3084F8AA31E8
:1042C0009DF8513084F8AD31BDF85330A4F8AF31CA
:1042D000BDF85630A4F8B231BDF85930A4F8B53164
:1042E0001EAA1C493846FFF719F9C3B284F8B13148
:1042F0001EAA19493846FFF711F9C3B284F8B43140
:104300001EAA16493846FFF709F9C3B284F8B73137
:10431000C0E500BFC40500300200015A00409C44C3
:1043200000C0A8440000C844008089440300015A2A
:104330000400015A0500015A00002F4400004844BF
:1043400000002A440600015A0700015A0800015AD9
:104350001700015A0000FA44004003450080094557
:104360001EAA11A93B48FFF771F93B4C022384F8C0
:10437000BF31BDF84C30A4F8C031BDF84F30A4F8BF
:10438000C3319DF84E3084F8C2319DF8513084F825
:10439000C531BDF85330A4F8C731BDF85630A4F884
:1043A000CA31BDF85930A4F8CD312C4F1EAA2C4982
:1043B0003846FFF7B3F8C3B284F8C9311EAA2949B9
:1043C0003846FFF7ABF8C3B284F8CC311EAA2649B1
:1043D0003846FFF7A3F8C3B284F8CF316CE519AAC9
:1043E00006A92248FFF772F91B4B022283F8D72156
:1043F0009DF86620A3F8DA219DF86520A3F8D8215E
:104400009DF86720A3F8DC215DE59DF85D2084F828
:104410002B229DF85E2084F82C229DF85F2084F8E2
:104420002D229DF8602084F82E2268E5059921440C
:1044300009482044FEF77CFE04F5807401350F2DF9
:10444000F4D9FEF793FFFFF79DFB304661B0F0BD56
:104450000126FAE71800015AC40500301700015A76
:104460000000FA4400400345008009451900015A44
:1044700030B5A5B0FEF77AFF0546C048FEF7F8FD57
:10448000002840F04A820446BD4B93E80300229086
:10449000ADF88C10090C8DF88E109DF88830012B2A
:1044A00000F0A780B74B93E803002290ADF88C1082
:1044B000090C8DF88E109DF88830012B00F0DE80FD
:1044C000B14B93E803002290ADF88C10090C8DF8E5
:1044D0008E109DF88830012B00F01581AB4B93E8CE
:1044E00003002290ADF88C10090C8DF88E109DF809
:1044F0008830012B00F01B81A54B93E8030022902C
:10450000ADF88C10090C8DF88E109DF88830012BB9
:1045100000F01A810DF1780C9E4B0FCBACE8070030
:104520008CF800309DF87830012B00F01A810DF1E5
:10453000780C994B0FCBACE807008CF800309DF855
:104540007830012B00F04C810DF1780C934B0FCBA0
:10455000ACE807008CF800309DF87830012B00F0B3
:104560004B810DF1780C8E4B0FCBACE807008CF82B
:1045700000309DF87830012B00F052810DF1780C5D
:10458000884B0FCBACE807008CF800309DF87830F2
:10459000012B00F04F81844B93E803002290ADF88B
:1045A0008C10090C8DF88E109DF88830012B00F0CE
:1045B0004B817E4B93E803002290ADF88C10090CE0
:1045C0008DF88E109DF88830012B00F06D816B4BBB
:1045D000D3F8E0301D939DF87430012B00F09481E6
:1045E000734B93E803001B908DF87010204625B0A4
:1045F00030BD22AA6F497048FEF70AFF6F4BD3F80F
:10460000902060F30502C3F890203E2D10D03D2D80
:104610001BD07D2D19D022AA66496748FEF7F8FE07
:10462000664BD3F8902060F30D22C3F8902018E079
:1046300022AA63496048FEF7EBFE604BD3F8902056
:1046400060F30D22C3F890200BE022AA59495A4882
:10465000FEF7DEFE594BD3F8902060F30D22C3F82D
:10466000902022AA53495448FEF7D2FE534BD3F868
:10467000902060F31542C3F8902013E722AA4D4919
:104680005048FEF7C5FE4D4BD3F8942060F3050269
:10469000C3F894203E2D10D03D2D1BD07D2D19D078
:1046A00022AA44494448FEF7B3FE444BD3F8942071
:1046B00060F30D22C3F8942018E022AA4049414833
:1046C000FEF7A6FE3D4BD3F8942060F30D22C3F80D
:1046D00094200BE022AA37493A48FEF799FE374B5F
:1046E000D3F8942060F30D22C3F8942022AA314914
:1046F0003448FEF78DFE314BD3F8942060F3154219
:10470000C3F89420DCE622AA2F493048FEF780FE49
:104710002A4BD3F8B82060F30302C3F8B820013065
:10472000D3F8B82060F31752C3F8B820D6E622AA0F
:1047300025492748FEF76CFE204BD3F8982060F3FC
:104740001342C3F89820D7E622AA22492248FEF74E
:104750005FFE1A4BD3F8982060F30D22C3F898201F
:10476000D8E61EAA0EA91D48FEF714FF0EA8FEF7F4
:10477000BDFF0EA8FFF75AF9D9E600BFC404003008
:10478000E4040030F4040030040500301405003067
:104790002405003034050030440500305405003055
:1047A0006405003074050030840500309405003045
:1047B000B405003000409C440100015A00600050E4
:1047C0000000C8440200015A008089440300015AD5
:1047D0000400015A00002F440500015A0600015A46
:1047E0001EAA0EA94E48FEF7D5FE0EA8FEF77EFFC4
:1047F0000EA8FFF735F9A7E61EAA0EA94948FEF74D
:10480000C9FE00238DF834309DF83F308DF83330E9
:10481000BDF84230ADF835300BA8FFF73BF9A0E604
:104820008DF82730BDF87930ADF8283008A8FFF7AB
:1048300043F9A3E68DF81B30BDF87930ADF81C3094
:1048400005A8FFF745F9A6E6374D22AA15A928467F
:10485000FEF7FCFE22AA35492846FEF75FFE6FF000
:104860004F038DF8633004238DF864308DF86500B4
:1048700022AA2F492846FEF751FE40F24C43ADF8DC
:1048800066308DF8680022AA2A492846FEF746FEBF
:1048900014238DF8693005238DF86A308DF86B008C
:1048A00015A8FFF721F984E6234D22AA15A9284669
:1048B000FEF7CCFE22AA1D492846FEF72FFE6FF018
:1048C0004F038DF8633004238DF864308DF8650054
:1048D00022AA17492846FEF721FE40F24C43ADF8C4
:1048E00066308DF8680022AA12492846FEF716FEA7
:1048F00014238DF8693005238DF86A308DF86B002C
:1049000015A8FFF70DF962E61DAA01A90B48FEF7ED
:10491000DDFE01A8FFF720F962E6012466E600BF8C
:104920000700015A0800015A1700015A0000964476
:10493000008089440080A2441800015A1900015ADD
:1049400010B586B000232C4A137001930293039391
:104950000493059301A8FEF723FF019B190C09049A
:10496000264A914242D1049AB2F5805F42D8244A45
:10497000934211D0039A23498A4211D020498B4295
:104980001CD021498A421CD01D498B4220D01A4B91
:1049900003221A70002407E0039AB2F1FF3FE9D125
:1049A000154B01221A700024134B1B78022B17D9C8
:1049B000032B1CD1FFF75CFD044618E012F1020F37
:1049C000DFD1FFF79DF904460B4B02221A70EBE78B
:1049D00012F1020FDBD1084B02221A700024E3E728
:1049E0005BB223B10598FFF743F900E002242046AB
:1049F00006B010BD0224FAE7C41500300000575875
:104A00000100575801003C5A02003C5A10B4BF49FB
:104A10000B6923F008030B61CB6823F4C04323F038
:104A200008031B041B0C43F0BF6343F41033CB603B
:104A3000D1F88C3043F44063C1F88C30B44A536BE6
:104A400023F0E05343F080535363D1F8D03023F088
:104A50000103C1F8D030AF4B9A6BC2F30742012477
:104A600004FA02F25209A3F5C0434FF40040186063
:104A700058609860DA604FF4C0521A615A619A61C6
:104A80001A6A22F001021A621A6A1A6A22F00202F3
:104A90001A621A6A1A6A22F010021A621A6A1A6AEA
:104AA00022F020021A621A6A1A6A22F040021A627E
:104AB0001A6A1A6A22F400721A621A6A1A6A22F4CC
:104AC00080621A621A6A1A6A22F400621A621A6A08
:104AD0001A6A22F480521A621A6A1A6A22F400527E
:104AE0001A621A6A1A6A22F480421A621A6A1A6AE6
:104AF00022F480321A621A6A1A6A22F480221A6236
:104B00001A6A1A6A22F400221A621A6A1A6A22F0CF
:104B100080721A621A6A1A6A22F080621A621A6A2B
:104B20001A6A22F080521A621A6A1A6A22F0005235
:104B30001A621A6A1A6A22F080421A621A6A1A6A99
:104B400022F000421A621A6A5A6A22F001025A627C
:104B50005A6A5A6A22F002025A625A6A5A6A22F061
:104B600010025A625A6A5A6A22F020025A625A6A3B
:104B70005A6A22F040025A625A6A5A6A22F48072D1
:104B80005A625A6A5A6A22F400725A625A6A5A6A15
:104B900022F480625A625A6A5A6A22F400625A62A5
:104BA0005A6A5A6A22F480525A625A6A5A6A22F43B
:104BB00000525A625A6A5A6A22F400425A625A6A87
:104BC0005A6A22F480325A625A6A5A6A22F40032CD
:104BD0005A625A6A9A6A22F001029A629A6A9A6A38
:104BE00022F002029A629A6A4B4AD2F8840220F4B6
:104BF0008050C2F88402D2F88402D2F8800220F0F9
:104C00000100C2F88002D2F88002D2F8800220F0BF
:104C10008000C2F88002D2F88002D2F8840220F02C
:104C20008000C2F88402D2F88402D2F8800220F018
:104C30000200C2F88002D2F88002D2F8800220F08E
:104C40000400C2F88002D2F88002D2F8800220F07C
:104C50000800C2F88002D2F88002D2F8800220F068
:104C60001000C2F88002D2F88002D2F8800220F050
:104C70002000C2F88002D2F88002D2F8800220F030
:104C80004000C2F88002D2F88002D2F8800220F4FC
:104C90008030C2F88002D2F88002D2F8800220F47C
:104CA0000030C2F88002D2F88002D2F8800220F4EC
:104CB0000000C2F88002D2F88002D2F8840220F408
:104CC0000050C2F88402D2F88402D2F8840220F4A0
:104CD0008060C2F88402D2F88402D2F8840220F400
:104CE0000040C2F88402D2F88402D2F8800220F098
:104CF0000070C2F88002D2F88002D2F8800220F060
:104D00008060C2F88002D2F8800207E000ED00E087
:104D100000EF00E00090005000E100E0D2F88002D7
:104D200020F48010C2F88002D2F88002D2F880020B
:104D300020F48020C2F88002D2F88002D2F88402E7
:104D400020F00100C2F88402D2F88402D2F8840272
:104D500020F00200C2F88402D2F88402D2F8840261
:104D600020F00400C2F88402D2F88402D2F884024F
:104D700020F00800C2F88402D2F88402D2F884023B
:104D800020F01000C2F88402D2F88402D2F8800227
:104D900020F48050C2F88002D2F88002D2F880025B
:104DA00020F40050C2F88002D2F88002D2F88002CB
:104DB00020F40010C2F88002D2F88002D2F88002FB
:104DC00020F48000C2F88002D2F88002D2F880027B
:104DD00020F00050C2F88002D2F88002D2F884029B
:104DE00020F48040C2F88402D2F88402D2F8800213
:104DF00020F40070C2F88002D2F88002D2F880025B
:104E000020F48060C2F88002D2F88002D2F88402D6
:104E100020F40070C2F88402D2F88402D2F884022E
:104E200020F48070C2F88402D2F88422DC62D1F8C7
:104E3000D03043F00203C1F8D0305DF8044B704726
:104E400070B57B4B5A6B582161F307025A635A6B5A
:104E500042F440725A635A6B42F440625A635A6B8E
:104E600022F470425A635A6B42F080725A634FF0D8
:104E7000A0410A6E42F080420A660A6E42F0004289
:104E80000A666C4A10684FF4FA3464F3110010603B
:104E90005068202565F30700506050684FF0010E00
:104EA0006EF3092050605468022060F38B24546034
:104EB000546860F30D345460546824F440445460E2
:104EC00054684FF00A0C6CF31344546054686CF34C
:104ED00017545460546844F080745460546844F02B
:104EE00000745460546824F080645460546844F042
:104EF00000645460546844F080545460146844F072
:104F000080741460D3F8BC20062464F30E22C3F826
:104F1000BC20D3F8BC2060F30602C3F8BC205A6A58
:104F20000F2464F317425A621A6C072464F30702D1
:104F30001A64D3F8BC206EF31242C3F8BC203E4A78
:104F40004FF48014D461D3F88C20462464F3060215
:104F5000C3F88C20D3F88C200B2464F30B22C3F805
:104F60008C20D3F88C206EF30D32C3F88C20D3F84C
:104F70008C2022F44042C3F88C20D3F88C2022F4F9
:104F80008032C3F88C202D4A14682D4E66F311042C
:104F90001460546865F30704546054686EF3092480
:104FA0005460546860F38B245460546860F30D348B
:104FB0005460506820F44040506050686CF31340D7
:104FC000506050686CF317505060506840F080702B
:104FD0005060506840F000705060506820F0806071
:104FE0005060506840F000605060506840F0805061
:104FF0005060106840F0807010604FF0FF320A651A
:10500000D3F8B42042F00072C3F8B420D3F8BC2027
:1050100042F40042C3F8BC20D3F8BC2042F0800226
:10502000C3F8BC205A6A22F080725A6270BD00BF79
:105030000060005000C001500040005000F00150DE
:105040008E2B020038B50546784BD3F8BC2042F0D1
:105050008052C3F8BC20D3F89C2022F00702C3F88A
:105060009C20D3F89C2042F00802C3F89C20D3F87F
:105070009C20062161F30612C3F89C20D3F89C20E3
:1050800042F08002C3F89C20D3F89C2022F4E06216
:10509000C3F89C20D3F89C2042F40062C3F89C2003
:1050A000D3F89C20012161F30E32C3F89C20D3F881
:1050B0009C2042F40042C3F89C20D3F89C2022F4A8
:1050C000E022C3F89C20D3F89C2042F40022C3F8CD
:1050D0009C20D3F89C200E2161F31752C3F89C202A
:1050E000D3F89C2022F08072C3F89C20D3F89C2037
:1050F00022F00072C3F89C20D3F89C2022F040627A
:10510000C3F89C20D3F89C2042F04052C3F89C2066
:10511000D3F89C2022F04042C3F89C20D3F8A8206A
:1051200022F00302C3F8A820D3F8A02022F007023F
:10513000C3F8A020D3F8A02042F00802C3F8A020B2
:105140003E280CD03D2812D07D2810D0374BD3F804
:10515000A020022161F30612C3F8A0200EE0D3F8CC
:10516000A020022161F30612C3F8A02006E02F4A16
:10517000D2F8A03023F07003C2F8A0302B4AD2F846
:10518000A03043F08003C2F8A0303E2D0CD03D2D5E
:1051900013D07D2D11D0254BD3F8A020062161F32B
:1051A0000A22C3F8A02010E01346D2F8A02006215E
:1051B00061F30A22C3F8A02007E01C4BD3F8A0201B
:1051C000012161F30A22C3F8A020184BD3F8A020D4
:1051D00042F40062C3F8A020D3F8A020022161F3BA
:1051E0000E32C3F8A020D3F8A02042F40042C3F846
:1051F000A020D3F8A02022F4E022C3F8A020D3F806
:10520000A02042F40022C3F8A0203E2D10D03D2D56
:1052100000F007817D2D00F00D81044BD3F8A02014
:105220000C2161F31752C3F8A02008E00060005081
:10523000D3F8A0200C2161F31752C3F8A020BE4C74
:10524000D4F8A03023F08073C4F8A030D4F8A03094
:1052500023F00073C4F8A030D4F8A03023F04063EA
:10526000C4F8A030D4F8A03043F04053C4F8A030C4
:10527000D4F8A03023F04043C4F8A030D4F8A830CC
:1052800023F00C03C4F8A830D4F8A430032262F34E
:105290000203C4F8A430D4F8A43043F00803C4F8DF
:1052A000A430D4F8A43062F30613C4F8A430D4F8C0
:1052B000A43043F08003C4F8A430D4F8A43043F4FD
:1052C000E063C4F8A430D4F8A43043F40063C4F815
:1052D000A430D4F8A43043F4E043C4F8A430D4F8A4
:1052E000A43043F40043C4F8A430D4F8A430052219
:1052F00062F31243C4F8A430D4F8A43043F400237A
:10530000C4F8A430D4F8A4300E2262F31753C4F8C2
:10531000A430D4F8A43023F08073C4F8A430D4F8B7
:10532000A43023F00073C4F8A430D4F8A43023F0E0
:105330004063C4F8A430D4F8A43043F04053C4F818
:10534000A430D4F8A43023F04043C4F8A430D4F8F7
:10535000A83023F03003C4F8A830D4F8AC300120D2
:1053600060F31243C4F8AC30D4F8AC3043F480138B
:10537000C4F8AC30D4F8AC3023F00303C4F8AC303C
:10538000D4F8AC3043F00403C4F8AC30D4F8AC30FB
:1053900060F30613C4F8AC30D4F8AC3023F4407397
:1053A000C4F8AC30D4F8AC3043F48063C4F8AC300B
:1053B000D4F8AC3060F30E33C4F8AC30D4F8B83065
:1053C00043F40073C4F8B830D4F8B83060F30E3347
:1053D000C4F8B830236A43F440132362236A43F4C9
:1053E00080032362FDF794FFD4F89830082262F31B
:1053F0000D23C4F89830D4F890300A2262F30503E4
:10540000C4F890303E2D1ED03D2D24D07D2D22D0CD
:10541000494BD3F89020172161F30D22C3F8902057
:1054200021E0454BD3F8A020082161F31752C3F8BF
:10543000A02004E7404BD3F8A0200E2161F31752BF
:10544000C3F8A020FBE6D4F89020172161F30D22C9
:10545000C4F8902007E0384BD3F890200A2161F37C
:105460000D22C3F89020344BD3F890200A2161F329
:105470001542C3F89020D3F8942061F30502C3F8D5
:1054800094203E2D0CD03D2D12D07D2D10D02A4BD6
:10549000D3F89420172161F30D22C3F894200FE074
:1054A000D3F89420172161F30D22C3F8942007E06C
:1054B000214BD3F894200A2161F30D22C3F89420E4
:1054C0001D4BD3F894100A2262F31541C3F89410CF
:1054D000D3F8B810092060F30301C3F8B810D3F86B
:1054E000B81062F31751C3F8B810D3F8981062F3EC
:1054F0001341C3F898105A6A1D2161F305025A62DC
:105500004FF0A0424FF0FF311165D3F8B42042F0C4
:105510000072C3F8B420D3F8BC2042F40042C3F8B0
:10552000BC20D3F8BC2042F08002C3F8BC205A6AE9
:1055300022F080725A6238BD0060005010B5FDF74D
:1055400015FF0446144B154A9A60D3F8882042F49C
:105550007002C3F888205A6A42F470225A629A6A2A
:1055600042F400729A62FFF751FA2046FFF76AFD93
:105570000020FDF753FE0020FDF7A4FEFDF71CFD03
:10558000074B40F2EF129A61FFF75AFC054B064AAF
:105590001A60FFF7D5F910BD00ED00E00000001023
:1055A00000900050540000300048E801024B9A6B14
:1055B0005A639B6B704700BF00300050FEE7FEE768
:1055C00008B5214B83F3088883F309881F4B83F3C5
:1055D0000A8883F30B881E4B1E4A1A605A60FFF735
:1055E000ADFF4FF0502318685A6842F001025A602C
:1055F0001861FBF739F908B1174A0EE01748FAF7B6
:10560000DBFFFEE71068516850F8230041F82300E3
:10561000013391688B42F5D30C32114B9A4201D27F
:105620000023F6E70F4A08E01168002041F8230044
:10563000013351688B42F7D308320B4B9A4201D2A7
:105640000023F6E7FAF7A8FDF87F0230008001306A
:10565000F87F0230A5EDF5FEF86A0010008000101A
:10566000106B0010106B0010206B00101D280FD95C
:10567000F12837D8E42827D3E4380D281AD8DFE8F2
:1056800000F02525272727272D2D292929292B2BF0
:105690000C280DD30C38112814D8DFE800F0212194
:1056A0002121111113130F13131313131313130DBC
:1056B0000020704700207047062070470420704784
:1056C000012070470020704700207047012070477C
:1056D0000420704706207047072070470520704758
:1056E000022070470020704740F080001D2914D927
:1056F000F02938D8E02925D32031C9B201238B40C5
:105700001A490B4220D141F241010B4223D142F20E
:1057100082010B4221D0102117E00D290ED30D3943
:10572000C9B201238B4012491940C1B913F00A0FC5
:1057300017D113F0010F03D1002106E0002104E08E
:10574000082102E0002100E00821FF238B40DB4319
:105750001360884070471821F7E70021F5E718210A
:10576000F3E71021F1E70021EFE700BF1445010046
:10577000940001001F2813D8023819280ED8DFE83A
:1057800000F011110D0D0D0D0D0D111111110D0D5B
:105790000D0D11110D0D0D0D11111111012070477D
:1057A000002070470020704738B505460C46FFF7CB
:1057B000E1FF68B10B2D07D03F2C0BD92034E4B2A8
:1057C000112C09D91F2006E02F2CF5D1002002E072
:1057D0001E2000E0002038BD0020FCE770B50B4B18
:1057E0005E680125002404E0012120469847013429
:1057F0006D001F2C09D83542F9D0054B53F82430E1
:10580000024A1563002BEFD1F1E770BD0010005084
:10581000001600302DE9F04782B005460C46FFF730
:10582000C3FF074618B1384602B0BDE8F0874FEA1B
:10583000950805F00303DB0004FA03F9FF269E40F8
:10584000F643002301932046FFF710FF824601AA8A
:1058500021462846FFF748FF03464FF0A04208F1D3
:10586000200152F821000AF1280152F8211030409D
:10587000019A1140272C24D80C2C17D30C3CE4B2ED
:105880000122A240194C144094B9194C2242CAD0AA
:1058900049EA00024FF0A04008F1200840F8282013
:1058A00019430AF1280A40F82A10BCE70B2CBAD891
:1058B00049EA000008F120084FF0A04343F828000F
:1058C000B1E7F12CAFD8E02C07D30B430AF1280A3B
:1058D0004FF0A04242F82A30A5E72F2CD8D0A2D30F
:1058E000303CE4B20F2CE3D99DE700BFC0FEFD0FB2
:1058F0003F010200022807D8064B1B5C33B1064B60
:105900001B5C2BB100207047322070470A20704783
:10591000372070473C17003058000030F8B5C0EB16
:105920000012134B03EB8203DE6906B30546104BEE
:1059300003EB8203DB6AD3B10D4B03EB82031F8CB5
:105940000C4B33F81040BC4211D2305D78B1C5EB3E
:105950000512074B03EB8203DB6A9847054A32F8CE
:105960001530013322F815300134A4B2EBE7F8BD4D
:10597000881600308016003028B1012805D0022892
:1059800005D000207047034870470348704703481C
:10599000704700BF002001500030015000500250FD
:1059A000F8B50446FFF7A6FF002840F0B88020466F
:1059B000FFF7E2FF0546C4EB0412594B03EB8203E9
:1059C0009B7E4BB1C66916F0400606D04023C361EA
:1059D00000230365012600E00026C4EB0412504BAF
:1059E00003EB82035B7EB3B1EB6913F0200F12D09F
:1059F0002023EB616B6C0F2B01D846F00206C4EB41
:105A00000412474B03EB8203DB6ACBB12046FFF75E
:105A100085FF46F00406EF6917F0010F20D001233F
:105A2000EB61C4EB04123E4B03EB8203DB6A002BF9
:105A30004ED06B6913F0010F0ED046F040060BE01C
:105A400046F00806E7E72868C4EB0412344B03EB82
:105A50008203DB6AC0B298476B6913F0010FF2D181
:105A600017F0020F03D00223EB6146F0100617F087
:105A7000040F18D06B6913F0020F01D046F40066D2
:105A800013F0040F01D046F4805613F0080F01D034
:105A900046F4005613F0100F01D046F4804604235C
:105AA000EB611E236B6117F0080F03D00823EB6135
:105AB00046F4004617F0100F25D01023EB61C4EB1D
:105AC0000412174B03EB8203DB6ACBB100270CE017
:105AD00046F08006C4E72868C4EB0412104B03EBC1
